:020000040800F2
:1000000000110020CD010008D30D0008C90C000824
:10001000D10D00082508000839170008000000006D
:10002000000000000000000000000000EF120008C7
:10003000AB08000800000000930E0008F112000851
:100040003B170008910E0008F31200086311000826
:10005000190A0008CD100008A1090008A509000828
:10006000A7090008A9090008AB09000895080008BD
:1000700097080008990800089B0800089D080008D8
:100080009F080008A1080008B704000835170008F9
:10009000371700082708000829080008AD090008DC
:1000A000F5120008FB120008F9120008F712000808
:1000B000FD1200083113000861130008CD0C000880
:1000C000CB0C0008D10C0008CF0C0008E912000886
:1000D000EB120008C51400088115000883150008FC
:1000E000A30900086111000833170008691300080C
:1000F0006F1300086D1300086B130008B9040008A3
:100100004B0B0008E712000863130008ED1200080B
:10011000C1140008C3140008651300086713000821
:10012000A3080008A5080008A7080008A9080008F7
:1001300000F002F800F03AF80AA090E8000C8244BF
:100140008344AAF10107DA4501D100F02FF8AFF29C
:10015000090EBAE80F0013F0010F18BFFB1A43F0A5
:1001600001031847D4170000F4170000103A24BF09
:1001700078C878C1FAD8520724BF30C830C144BF0C
:1001800004680C607047000000230024002500264E
:10019000103A28BF78C1FBD8520728BF30C148BFEA
:1001A0000B6070471FB51FBD10B510BD00F04DF9B5
:1001B0001146FFF7F7FF01F099FB00F06BF903B46C
:1001C000FFF7F2FF03BC00F06FF90000034800479F
:1001D00003480449044A054B7047000031010008F8
:1001E0000009002000110020000D0020000D00205B
:1001F00030BF704720BF704740BF7047BFF36F8F5D
:100200007047BFF34F8F7047BFF35F8F704701DFB9
:100210007047EFF31480704780F31488BFF36F8F3B
:100220007047EFF30980704780F309887047EFF358
:100230000880704780F30888704762B6704772B6CE
:100240007047EFF31080704771B6704761B6704722
:10025000EFF31380704780F311887047EFF312803B
:10026000704740BA704700BA704740EA010302463F
:1002700030B59B0710D14FF0013400E008C208C927
:100280001D1B9D4315EAC41FF8D013F0FF0102F8AF
:10029000011B0DD01B0AF8E711F8013B002B02F8F7
:1002A000013B05D011F8013B002B02F8013BF3D1D3
:1002B00030BD10B5431C02E010F8011B71B181077D
:1002C000FAD14FF0013202C88C1A8C4314EAC211E1
:1002D000F9D0C01A0A0603D0C01E10BDC01A10BD46
:1002E0000A0401D0801E10BD0902FCD0401E10BDC2
:1002F000421E12F8013F002BFBD111F8013B002BED
:1003000002F8013BF9D17047032A40F2308010F027
:10031000030C00F0158011F8013BBCF1020F6244A0
:1003200098BF11F801CB00F8013B38BF11F8013B31
:10033000A2F1040298BF00F801CB38BF00F8013BDE
:1003400011F0030300F04F80083AC0F0088051F824
:10035000043B083A51F804CBA0E80810F5E7121D59
:100360005CBF51F8043B40F8043BAFF30080D20778
:1003700024BF11F8013B11F801CB48BF11F8012B44
:1003800024BF00F8013B00F801CB48BF00F8012B67
:1003900070474FF0000200B5134694469646203948
:1003A00022BFA0E80C50A0E80C50B1F12001BFF42E
:1003B000F7AF090728BFA0E80C5048BF0CC05DF894
:1003C00004EB890028BF40F8042B08BF704748BFE2
:1003D00020F8022B11F0804F18BF00F8012B704756
:1003E00070477047704710B5203AC0F00B80B1E8F5
:1003F0001850203AA0E81850B1E81850A0E818505A
:10040000BFF4F5AF5FEA027C24BFB1E81850A0E862
:10041000185044BF18C918C0BDE810405FEA827C7C
:1004200024BF51F8043B40F8043B08BF7047D20793
:1004300028BF31F8023B48BF11F8012B28BF20F834
:10044000023B48BF00F8012B7047754600F028F8C2
:10045000AE4605006946534620F00700854618B0B1
:1004600020B5FFF7B5FEBDE820404FF000064FF085
:1004700000074FF000084FF0000B21F00701AC46D9
:10048000ACE8C009ACE8C009ACE8C009ACE8C009F8
:100490008D4670470446AFF300802046FFF78FFE7D
:1004A000004870479C08002001491820ABBEFEE7B9
:1004B00026000200704770477047000070B5174C67
:1004C000174D0E68002376B10078432801D06328C9
:1004D00008D16678012006B960702E68C82E01DB4D
:1004E0002B6010700B606868B0F5A07F15DB6B6047
:1004F0000C4D28680C490840B0F1005F09D100F0AC
:100500001BF86868E061A0612868FFF793FEA069A6
:10051000804706A000F0BEFCFEE770BD0000002092
:100520006C040020002000080000FE2F0A0DD4CB30
:10053000D0D0CAA7B0DC210010B500F006F800F05A
:1005400047F8BDE8104000F0ABB810B501218C07AA
:100550000022204600F080FF2046BDE81040002128
:1005600000F009BF7FB50121084600F09FFC4FF065
:100570008045284600F00AFF0024ADF8064040F20E
:10058000E730ADF80400ADF802404720ADF80000B8
:100590006946284600F06AFF1C208DF80C000A20EE
:1005A0008DF80D008DF80E4001208DF80F0003A886
:1005B00000F01CFC0021284600F056FF01221146E5
:1005C000284600F049FF0121284600F0D4FE7FBDF7
:1005D00010B5084C0021204600F0CDFE0021204639
:1005E00000F042FF20460022BDE81040012100F04B
:1005F00033BF0000000400407FB50121022000F05D
:1006000055FC194D284600F0C1FE0024ADF8064007
:1006100042F6CF71ADF80240ADF80410ADF80040DD
:100620006946284600F022FF1D208DF80C000620A8
:100630008DF80D008DF80E4001208DF80F0003A8F5
:1006400000F0D4FB0021284600F00EFF002201211B
:10065000284600F001FF0121284600F089FE002114
:10066000284600F088FE7FBD0004004010B5084C0D
:100670000021204600F0F8FE0121204600F07BFE1C
:1006800020460122BDE81040114600F0E5BE000002
:100690000004004001490860704700003400002059
:1006A0002DE9F041154801780129FCD1144C0021B5
:1006B000204600F06DFF40F22775002229462046B3
:1006C00000F0C5FF40F2255600223146204600F0DA
:1006D000BEFF40F2266700223946204600F0B7FFF1
:1006E0002946204600F04EFF3946204600F04AFFDA
:1006F00031462046BDE8F04100F044BF38000020FC
:10070000003801400149486070470000380000206F
:10071000F0B587B0012144F2040000F0DFFB284E61
:10072000304600F03FFF684600F0F8FF00244FF429
:10073000E1300090ADF808400C20ADF80640ADF86F
:100740000A00ADF804406946304600F099FF701584
:10075000ADF8100001258DF812501820194F8DF8B2
:10076000130004A9384600F023FAA802ADF81000DF
:100770008DF8125004208DF8130004A9384600F0BB
:1007800017FA012240F22771304600F060FF012283
:1007900040F22551304600F05AFF25208DF8140014
:1007A0008DF815508DF816408DF8175005A800F0FB
:1007B0001DFB0121304600F0EBFE07B0F0BD00004C
:1007C00000380140000801402DE9F041134F0C466C
:1007D000B968096831B92CB1B4F5836F02D839789A
:1007E000012902D00020BDE8F08110F8011B0C4E59
:1007F0000546304600F08EFF00213970B868621E51
:10080000026081802946801DFFF77EFD012240F2B3
:100810002771304600F01BFF0120E4E7380000207C
:1008200000380140FEE77047704700000C4B187815
:1008300060B101280CD002280DD003280DD0002073
:10084000187008491B69064A881D1847064800E0C9
:1008500006481861F5E70648FBE70648F9E7000097
:10086000000000204C000020BD040008AD08000876
:10087000D50C00088911000810B50448FFF70AFFDD
:10088000BDE810400248FFF73DBF0000A914000872
:100890006511000870477047704770477047704790
:1008A00070477047704770477047704770B506468D
:1008B000012008600C4615460DA13046FFF7D5FC17
:1008C0001BA13046FFF714FD1FA13046FFF710FDB6
:1008D00022A13046FFF70CFD2FA13046FFF708FD9F
:1008E00002202870304600F0D5FA0020206070BD4C
:1008F0000D2A2A2A2A2A2A2A2A2A2A2A2A2A2A2A75
:100900002A2A2A2A2A2A2A2A2A2A2A2A2A2A2A2A47
:100910002A2A2A2A2A2A2A2A2A2A2A2A2A2A2A2A37
:100920002A2A2A2A2A2A2A2A2A2A0D0A000000000C
:10093000312EB8FCD0C2D3A6D3C3C7F8B3CCD0F203
:10094000A3BB0D0A00000000322ED4CBD0D0415002
:1009500050B3CCD0F2A1A30D0A0000002A2A2A2A03
:100960002A2A2A2A2A2A2A2A2A2A2A2A2A2A2A2AE7
:100970002A2A2A2A2A2A2A2A2A2A2A2A2A2A2A2AD7
:100980002A2A2A2A2A2A2A2A2A2A2A2A2A2A2A2AC7
:100990002A2A2A2A2A0D0A00C7EBD1A1D4F13A004B
:1009A0007047704770477047704770477047000046
:1009B00070B5054640F6FF76304600F097F80428FB
:1009C00013D10A4C206940F0020020616561206962
:1009D00040F040002061304600F088F8012804D043
:1009E000216941F6FD721140216170BD0020024075
:1009F00008490420CA68D20701D001207047CA689C
:100A0000520701D502207047C968C906FBD50320EB
:100A10007047000000200240704700000248016952
:100A200041F08001016170470020024004490A68DA
:100A300022F010020A600A6802430A607047000050
:100A400000200240FFF7EABF70B506460D460F20B2
:100A500000F04CF804280FD1084C206940F0010048
:100A6000206135800F2000F041F8012804D0216971
:100A700041F6FE721140216170BD0000002002406D
:100A80007CB500200426009000F024F809487B245F
:100A9000094D019007E005EBC020FFF789FF0099A1
:100AA0000646491C00910098A04201D2042EF2D0C3
:100AB0007CBD000090D003000020000804490A68B3
:100AC00002F038020A600A6802430A6070470000B8
:100AD00000200240034802494160034941607047D9
:100AE0002301674500200240AB89EFCD18B50346CE
:100AF000FFF77EFFFF2407E000940098401E00905F
:100B0000FBD1FFF775FF5B1E012803D0002B00D13E
:100B1000052018BD002BEFD1FAE738B504468D1833
:100B2000084600910DE02188FFF78EFF208800998C
:100B30000988884201D0002038BD0098A41C801C80
:100B400000908542EFD8012038BD704710B50121D3
:100B50007C2000F0C3F910484FF6FF71018000219E
:100B6000C17001460D4800F023F80B490C4800F015
:100B70001FF809490B4800F01BF807490A4800F024
:100B800017F80549094800F013F80021BDE81040A6
:100B90007C2000F0A3B900002E00002000080140D6
:100BA000000C0140001001400014014000180140F9
:100BB000F0B5CC78002204F00F03E40601D58C7860
:100BC00023430C784FF00F0C4FF0010ED4B10568A1
:100BD0000E880EFA02F42640A6420FD196000CFAB7
:100BE00006F725EA070703FA06F5CE783D43282ED7
:100BF00000D14461CE78482E00D10461521C082AED
:100C0000E6D305600A88FF2A1CD94468002202F155
:100C100008060EFA06F50E882E40AE420ED196005A
:100C20000CFA06F7BC4303FA06F7CE783C43282EAD
:100C300000D14561CE78482E00D10561521C082AAA
:100C4000E5D34460F0BD416170470161704710B564
:100C500000F05CF900F0BEF8FFF778FF00F008F84C
:100C6000FFF780FCFFF7C8FCBDE81040FFF750BD60
:100C700038B50121882000F031F94FF49050ADF8DB
:100C8000000010208DF803000E4D02248DF8024064
:100C900069462846FFF78CFF09212846FFF7D3FF56
:100CA0000C212846FFF7CFFFA103ADF80010042068
:100CB0008DF803008DF8024069462846FFF778FF5B
:100CC00038BD0000000C0140FEE7704770477047D8
:100CD0007047000070B50C460968002918D00078EC
:100CE0000025312802D0322811D10CE00A480949E8
:100CF00041610A4941600A49C1600A498160032093
:100D0000107009A001E015700CA000F0C3F8256078
:100D100070BD00000020000800000020810A0008CB
:100D20001B0B0008450A0008310D0AC7EBD1A1D4FE
:100D3000F1D2AAB7A2CBCDCEC4BCFE00320D0AD4EC
:100D4000CBD0D0B3CCD0F22E2E2E000001460D4ACF
:100D50000D48062915D2DFE801F00306090B0D1036
:100D60004FF4006100E00221104608E0402106E057
:100D7000802104E04FF4807101E04FF40071FFF72F
:100D800062BF704700080140001C014030B40246B9
:100D90000D4C0E484FF40061062A12D2DFE802F033
:100DA00003030507090C204608E0402106E08021E6
:100DB00004E04FF4807101E04FF4007130BCFFF7A4
:100DC00044BF30BC7047000000080140001C0140D7
:100DD000FEE7704710B500214FF0006000F04EF8BC
:100DE000BDE810404FF4407000F03EB8F0B50F245D
:100DF000C278017801264FF0E0273AB3184A12680A
:100E0000457802F4E062C2F5E062120AC2F104031E
:100E1000D44082789D4022402A4313018A0721F062
:100E20000304D20E0F49934065182C68FF219140AE
:100E30008C430B401C432C60007800F01F018E4057
:100E4000400907EB8000C0F80061F0BD01F01F0011
:100E50008640480907EB8000C0F88061F0BD0000C3
:100E60000CED00E000E400E002490843024908609C
:100E7000704700000000FA050CED00E0024A114046
:100E8000014302480160704780FFFF1F08ED00E04A
:100E90007047704770B50546FFF70BFA84B22146DC
:100EA0002846FFF791FC0128F9D170BD044A0029BA
:100EB000D16901D0014300E08143D1617047000056
:100EC00000100240044A0029116901D0014300E0EA
:100ED000814311617047000000100240044A00295C
:100EE000916901D0014300E08143916170470000A6
:100EF00000100240044A0029D16801D0014300E0FB
:100F00008143D160704700000010024010B500F02E
:100F100031F84FF48034204600F0BEF800F006F9B6
:100F200013490128087022D11020FFF77FFD02200D
:100F3000FFF7C4FD002000F0A5F8002000F0D2F873
:100F4000002000F0C5F84FF4E011204600F0DAF878
:100F5000012000F0D1F8392000F074F80028FAD010
:100F6000022000F0D9F800F085F80828FBD110BD68
:100F70002C0000200B48016841F00101016041682C
:100F8000094A114041600168084A11400160016846
:100F900021F480210160416821F4FE0141600021BB
:100FA00081607047001002400000FFF8FFFFF6FE6E
:100FB00030B5204A5168204B11F00C0103D00429B0
:100FC00001D0082901D0036011E05168022301F427
:100FD000701103EB9141536813F4803F02D05368C2
:100FE0009B0301D5154B00E0134B59430160516839
:100FF0000F2303EA1111124B5C5C0168E140416070
:101000005468072505EA14241C5D21FA04F4846061
:10101000546805EAD4241B5DD940C160526803239B
:1010200003EA9232064B1B1F9A5CB1FBF2F101619D
:1010300030BD00000010024000127A0000093D009F
:1010400028190008034600205909094A01290AD035
:1010500002290AD0516A03F01F02012393400B4278
:1010600000D0012070471168F5E7116AF3E700002E
:10107000001002400248406800F00C007047000079
:1010800000100240034A516821F0F0010143516011
:1010900070470000001002400B490A6822F48032B9
:1010A0000A600A6822F480220A60B0F5803F07D007
:1010B000B0F5802F03D1086840F4A0200860704785
:1010C000086840F48030F9E70010024070470000E3
:1010D000034A516821F4E061014351607047000008
:1010E00000100240034A516821F4605141EAC000F7
:1010F00050607047001002400149086670470000C8
:1011000000004242034B5A68084322F47C12104309
:101110005860704700100240034A516821F00301F3
:1011200001435160704700000010024030B50B4C85
:1011300040F2FF153120FFF785FF20706068401CEA
:101140006060207810B96068A842F3D13120FFF7C1
:1011500079FF002800D0012030BD000044000020AD
:1011600070477047074A9188B1F5836F09D21168BB
:10117000002906D191885318491C91809871FFF776
:1011800075BA70474C000020F0B5ADF20C4D0C461E
:101190000746164640F204416846FFF7FAF8002574
:1011A0000DF204436A4621463846CDF8045400F057
:1011B000C5FA144CB0F1FF3F18D0012808D002281E
:1011C00003D16068002800D080470DF20C4DF0BDBF
:1011D000E3682BB1DDF80404616982B26846984780
:1011E0006069DDF8041408446061EEE7A06800B1AE
:1011F00080476560E560A560357003A0FFF74AFE93
:10120000E3E70000000000200D0AD4CBD0D0B3CC1F
:10121000D0F22E2E2E0000002DE9F0478C4692468B
:101220000178089A994601290BD002290BD004298C
:1012300017D0032915D018290DD04FF0FF30BDE885
:10124000F087802501E04FF48065417891420AD013
:101250006FF00100F3E74078182802D06FF0050026
:10126000EDE70020EBE78178D243D2B2914202D081
:101270006FF00200E3E7691D8C4502D06FF00300B8
:10128000DDE700F1030229464FF0000341F2210798
:101290004FF6FF7810E012F8014B83EA042308248C
:1012A0001E0403D587EA43039BB201E008EA430327
:1012B000641E2404240CF3D10C00A1F1010189B2B5
:1012C000E9D100EB0C0131F8021C49BA994201D076
:1012D000601FB4E7C11C2A465046FFF715F80120ED
:1012E000C9F80050ABE770477047704770477047C8
:1012F00070477047704770477047704770B501215D
:101300008D070024284600F09BF801280DD101210B
:10131000284600F02DF8054850F82410491C40F8E4
:101320002410641CA4B2042CF6D370BD6C040020FD
:1013300010B5094C0121204600F082F801280AD19D
:101340000121204600F014F804480068002802D06B
:10135000BDE81040004710BD0004004034000020EC
:1013600070477047704770477047704770477047C5
:10137000C943018270470029018802D041F0010170
:1013800002E040F2FE321140018070472A4A10B557
:10139000811A1315D41490423BD010DCB0F1804F69
:1013A00022D02649401826D098422BD0A04241D1C5
:1013B00001210820FFF786FD0021082036E0994230
:1013C0002ED0B1F58E3F0DD0B1F5923F32D1012133
:1013D0004C032046FFF78EFD2046BDE8104000215B
:1013E000FFF788BD0121F4E701210846FFF76AFDF8
:1013F000002101201AE001210220FFF763FD0021F6
:10140000022013E001210420FFF75CFD00210420ED
:101410000CE001211020FFF755FD0021102005E010
:1014200001212020FFF74EFD00212020BDE81040C3
:10143000FFF748BD10BD00000010004000FCFFBFDA
:1014400002460020138A92890B4202EA010202D06E
:10145000002A00D001207047002A828901D00A4367
:1014600000E08A438281704781847047028802F0DD
:101470008F020280CA884B881A4303881A4302806D
:101480008A8882850A88028501228282044A9042E3
:1014900002D0044A904201D1097A018670470000C7
:1014A000002C01400034014010B5FFF791F80348CB
:1014B000818801600021818010BD00004C00002067
:1014C000704770472DE9F0412B4D40F227773946A0
:1014D000284600F09DF8294C40F22666012814D0D9
:1014E0003146284600F094F878B33146284600F09B
:1014F00049F800223146284600F0A9F8A1680020EA
:10150000086001202070BDE8F0813946284600F0CF
:1015100039F8A068016861B18188831D4A1C828006
:10152000C95C284600F0F6F8A0680168491E016011
:10153000E9E700223946284600F089F83146284676
:10154000BDE8F041012200F082B840F22556314654
:10155000284600F05DF80028D5D03146284600F036
:1015600011F8284600F0D2F86168C0B20029CAD04C
:10157000BDE8F04108470000003801403800002075
:10158000704770470A0A01219140C94301807047A2
:101590000029818902D041F4005101E021F4005179
:1015A00081817047184A10B5811A131590421BD0DB
:1015B00007DC1649401814D0984223D101210402B7
:1015C00017E0994213D0B1F56C4F1BD101218C0368
:1015D0002046FFF78FFC2046BDE810400021FFF7B2
:1015E00089BC01214C0404E00121CC0401E001216B
:1015F0000C052046FFF766FC2046BDE810400021A0
:10160000FFF760BC10BD0000004C004000BCFFBFF5
:1016100070B501F01F0501260024C1F3421306FA3C
:1016200005F2012B0FD0022B0FD0838A4FEA112134
:101630000088134206FA01F600EA060001D000B164
:101640000124204670BD8389F0E7038AEEE710B5D8
:10165000C1F3421301F01F040121A140012B07D067
:10166000022B07D01430002A026805D00A4304E098
:101670000C30F8E71030F6E78A43026010BD000036
:1016800030B50446008A85B00D464CF6FF7108401F
:10169000E98801432182A0894EF6F3110840A98808
:1016A0002A8911436A8902431143A181A08A4FF616
:1016B000FF410840A9890143A1826846FFF778FCF1
:1016C0001148844201D1039800E00298642200EBA3
:1016D000C00101EB001029686FF018058900B0FB0C
:1016E000F1F0B0FBF2F109010B096B4300EB830051
:1016F000322303EB0010B0FBF2F000F00F000843C0
:10170000208105B030BD0000003801408088C0F362
:1017100008007047C1F30801818070474FF41651EB
:10172000016000218180C18001810C224281818180
:101730007047704770477047FEE770472DE9FF4FCD
:101740005B4C0E46002522785A4981B09C464FF0EA
:10175000040A4FF0010B4FF47A782F46052A0DD278
:10176000DFE802F0030D465590006760A7606770E0
:1017700084F800B0C868002800DBCF607EE08946AE
:10178000C968414509DBC9F80C70494A4849083223
:10179000432000F091F8277070E0316800296DD087
:1017A000227900926346039AFFF736FD40B2376014
:1017B00078B1012816D10398C07838B10220207082
:1017C00005466068401C6060677051E084F800A0C6
:1017D0004EE0607808B1676041E0354A344908322C
:1017E000152040E0324A67700832314915202DE05B
:1017F00003202F4A207008322D49062000F05CF8A3
:101800002B4A2B490832432000F056F836E089462F
:10181000C968414504DBC9F80C7084F800A02DE0CC
:10182000316859B3227900926346039AFFF7F4FCBA
:1018300040B2376068B10128D4D160681C4A401CAE
:1018400060600125677008321949062000F034F8FD
:101850000EE060780028C0D0676084F800B0144AB9
:1018600013490832062000F027F86078401C6070A9
:10187000D9F80C104846002900DBC76005B028469F
:10188000BDE8F08F0A4A0A490832062000F014F831
:10189000074A07490832182000F00EF8044A0449A4
:1018A0000832182000F008F84FF0FF3573E7000009
:1018B000200000206C04002037B514460D4601219D
:1018C0006846FEF781FF0128F9D19DF8000006283F
:1018D00009D0152806D12068401C2060052801DDAC
:1018E000042028703EBD002020603EBD0024FFF78C
:1018F000AEF9FEF7C1FF4FF47A770026084DFEF7E8
:1019000095FF2868B842FADB2E604FF005001CB145
:10191000FFF73CFA0024F2E7FFF718FA0124EEE79C
:101920006C04002002040608000000000102030409
:1019300001020304060708095819000800000020E6
:101940004C0000006C010008A41900084C000020A5
:10195000B410000088010008000000000000000032
:10196000000000000000000000000000002000084F
:101970000000000000000000000000000000000067
:101980000000000000000000000000000000000057
:1019900001000000000000007C04002000000000A6
:0419A0000000000043
:0400000508000131BD
:00000001FF
